{
  "contractName": "Tally",
  "abi": [
    {
      "anonymous": false,
      "inputs": [
        {
          "indexed": false,
          "internalType": "string",
          "name": "method",
          "type": "string"
        },
        {
          "indexed": false,
          "internalType": "uint256",
          "name": "count",
          "type": "uint256"
        },
        {
          "indexed": false,
          "internalType": "address",
          "name": "caller",
          "type": "address"
        }
      ],
      "name": "Count",
      "type": "event"
    },
    {
      "inputs": [],
      "name": "count",
      "outputs": [
        {
          "internalType": "uint256",
          "name": "",
          "type": "uint256"
        }
      ],
      "stateMutability": "view",
      "type": "function",
      "constant": true
    },
    {
      "inputs": [],
      "name": "increase",
      "outputs": [],
      "stateMutability": "nonpayable",
      "type": "function"
    },
    {
      "inputs": [],
      "name": "decrease",
      "outputs": [],
      "stateMutability": "nonpayable",
      "type": "function"
    },
    {
      "inputs": [],
      "name": "getCount",
      "outputs": [
        {
          "internalType": "uint256",
          "name": "",
          "type": "uint256"
        }
      ],
      "stateMutability": "view",
      "type": "function",
      "constant": true
    }
  ],
  "bytecode": "0x608060405234801561001057600080fd5b50610224806100206000396000f3fe608060405234801561001057600080fd5b506004361061004c5760003560e01c806306661abd14610051578063a87d942c1461006f578063d732d95514610077578063e8927fbc14610081575b600080fd5b610059610089565b604051610066919061019d565b60405180910390f35b61005961008f565b61007f610095565b005b61007f6100e6565b60005481565b60005490565b6000805490806100a4836101a6565b91905055507fcf24299ebc95eedbb801565154ed001c4042a10939aee23f07bf733753a9d966600054336040516100dc92919061012d565b60405180910390a1565b6000805490806100f5836101bd565b91905055507fcf24299ebc95eedbb801565154ed001c4042a10939aee23f07bf733753a9d966600054336040516100dc929190610165565b606080825260089082015267446563726561736560c01b608082015260208101929092526001600160a01b0316604082015260a00190565b606080825260089082015267496e63726561736560c01b608082015260208101929092526001600160a01b0316604082015260a00190565b90815260200190565b6000816101b5576101b56101d8565b506000190190565b60006000198214156101d1576101d16101d8565b5060010190565b634e487b7160e01b600052601160045260246000fdfea2646970667358221220c838be46980287091bdc638559cc525bb16c979bcd0349fc7b8509ab181b04f264736f6c63430008000033",
  "immutableReferences": {},
  "source": "// SPDX-License-Identifier: MIT\r\n\r\npragma solidity ^0.8.0;\r\n\r\ncontract Tally {\r\n\r\n    uint public count;\r\n    \r\n    event Count(string method, uint count, address caller);\r\n\r\n    function increase() public {\r\n\r\n        count++;\r\n\r\n        emit Count('Increase', count, msg.sender);\r\n\r\n    }\r\n\r\n    function decrease() public {\r\n\r\n        count--;\r\n        emit Count('Decrease', count, msg.sender); \r\n\r\n    }\r\n\r\n    function getCount() public view returns (uint) {\r\n        return count; \r\n    }\r\n\r\n}",
  "sourcePath": "C:\\Users\\Nahid Tanjum\\OneDrive\\Desktop\\group 1-08\\my_project\\contracts\\Tally.sol",
  "compiler": {
    "name": "solc",
    "version": "0.8.0+commit.c7dfd78e.Emscripten.clang"
  },
  "schemaVersion": "3.4.16",
  "updatedAt": "2023-10-18T09:41:49.899Z",
  "networkType": "ethereum",
  "devdoc": {
    "kind": "dev",
    "methods": {},
    "version": 1
  },
  "userdoc": {
    "kind": "user",
    "methods": {},
    "version": 1
  }
}